{
  "_format": "hh-sol-artifact-1",
  "contractName": "BellshireLogic",
  "sourceName": "contracts/BellshireMain.sol",
  "abi": [
    {
      "inputs": [],
      "name": "InvalidInitialization",
      "type": "error"
    },
    {
      "inputs": [],
      "name": "NotInitializing",
      "type": "error"
    },
    {
      "anonymous": false,
      "inputs": [
        {
          "indexed": true,
          "internalType": "uint256",
          "name": "channelId",
          "type": "uint256"
        },
        {
          "indexed": true,
          "internalType": "address",
          "name": "creator",
          "type": "address"
        },
        {
          "indexed": false,
          "internalType": "uint256",
          "name": "price",
          "type": "uint256"
        }
      ],
      "name": "ChannelCreated",
      "type": "event"
    },
    {
      "anonymous": false,
      "inputs": [
        {
          "indexed": false,
          "internalType": "uint64",
          "name": "version",
          "type": "uint64"
        }
      ],
      "name": "Initialized",
      "type": "event"
    },
    {
      "anonymous": false,
      "inputs": [
        {
          "indexed": true,
          "internalType": "uint256",
          "name": "channelId",
          "type": "uint256"
        },
        {
          "indexed": true,
          "internalType": "address",
          "name": "user",
          "type": "address"
        }
      ],
      "name": "JoinedChannel",
      "type": "event"
    },
    {
      "inputs": [],
      "name": "activateAccount",
      "outputs": [],
      "stateMutability": "nonpayable",
      "type": "function"
    },
    {
      "inputs": [
        {
          "internalType": "address",
          "name": "user",
          "type": "address"
        }
      ],
      "name": "checkIsActivated",
      "outputs": [
        {
          "internalType": "bool",
          "name": "",
          "type": "bool"
        }
      ],
      "stateMutability": "view",
      "type": "function"
    },
    {
      "inputs": [],
      "name": "claimReward",
      "outputs": [],
      "stateMutability": "nonpayable",
      "type": "function"
    },
    {
      "inputs": [
        {
          "internalType": "uint256",
          "name": "price",
          "type": "uint256"
        }
      ],
      "name": "createPremiumChannel",
      "outputs": [],
      "stateMutability": "nonpayable",
      "type": "function"
    },
    {
      "inputs": [],
      "name": "getChannelCreationFee",
      "outputs": [
        {
          "internalType": "uint256",
          "name": "",
          "type": "uint256"
        }
      ],
      "stateMutability": "view",
      "type": "function"
    },
    {
      "inputs": [
        {
          "internalType": "uint256",
          "name": "channelId",
          "type": "uint256"
        }
      ],
      "name": "getChannelPrice",
      "outputs": [
        {
          "internalType": "uint256",
          "name": "",
          "type": "uint256"
        }
      ],
      "stateMutability": "view",
      "type": "function"
    },
    {
      "inputs": [],
      "name": "getLastActivityScore",
      "outputs": [
        {
          "internalType": "uint256",
          "name": "",
          "type": "uint256"
        }
      ],
      "stateMutability": "view",
      "type": "function"
    },
    {
      "inputs": [],
      "name": "getStackAmount",
      "outputs": [
        {
          "internalType": "uint256",
          "name": "",
          "type": "uint256"
        }
      ],
      "stateMutability": "view",
      "type": "function"
    },
    {
      "inputs": [
        {
          "internalType": "address",
          "name": "user",
          "type": "address"
        }
      ],
      "name": "getUserDetails",
      "outputs": [
        {
          "internalType": "uint256",
          "name": "stakedAmount",
          "type": "uint256"
        },
        {
          "internalType": "uint256",
          "name": "stakeTimestamp",
          "type": "uint256"
        },
        {
          "internalType": "uint256",
          "name": "lastActivityScore",
          "type": "uint256"
        },
        {
          "internalType": "uint256",
          "name": "lastRewardClaim",
          "type": "uint256"
        },
        {
          "internalType": "bool",
          "name": "isActivated",
          "type": "bool"
        }
      ],
      "stateMutability": "view",
      "type": "function"
    },
    {
      "inputs": [
        {
          "internalType": "address",
          "name": "_owner",
          "type": "address"
        },
        {
          "internalType": "address",
          "name": "_usersContract",
          "type": "address"
        },
        {
          "internalType": "address",
          "name": "_tippingContract",
          "type": "address"
        },
        {
          "internalType": "address",
          "name": "_premiumChannelContract",
          "type": "address"
        }
      ],
      "name": "initialize",
      "outputs": [],
      "stateMutability": "nonpayable",
      "type": "function"
    },
    {
      "inputs": [
        {
          "internalType": "uint256",
          "name": "channelId",
          "type": "uint256"
        }
      ],
      "name": "isMember",
      "outputs": [
        {
          "internalType": "bool",
          "name": "",
          "type": "bool"
        }
      ],
      "stateMutability": "view",
      "type": "function"
    },
    {
      "inputs": [
        {
          "internalType": "uint256",
          "name": "channelId",
          "type": "uint256"
        }
      ],
      "name": "joinPremiumChannel",
      "outputs": [],
      "stateMutability": "nonpayable",
      "type": "function"
    },
    {
      "inputs": [],
      "name": "owner",
      "outputs": [
        {
          "internalType": "address",
          "name": "",
          "type": "address"
        }
      ],
      "stateMutability": "view",
      "type": "function"
    },
    {
      "inputs": [],
      "name": "premiumChannelContract",
      "outputs": [
        {
          "internalType": "contract IPremiumChannelContract",
          "name": "",
          "type": "address"
        }
      ],
      "stateMutability": "view",
      "type": "function"
    },
    {
      "inputs": [
        {
          "internalType": "address[]",
          "name": "users",
          "type": "address[]"
        },
        {
          "internalType": "uint256[]",
          "name": "bytesSent",
          "type": "uint256[]"
        }
      ],
      "name": "recordUserActivity",
      "outputs": [],
      "stateMutability": "nonpayable",
      "type": "function"
    },
    {
      "inputs": [
        {
          "internalType": "address",
          "name": "addr",
          "type": "address"
        }
      ],
      "name": "setPremiumChannelContract",
      "outputs": [],
      "stateMutability": "nonpayable",
      "type": "function"
    },
    {
      "inputs": [
        {
          "internalType": "address",
          "name": "addr",
          "type": "address"
        }
      ],
      "name": "setTippingContract",
      "outputs": [],
      "stateMutability": "nonpayable",
      "type": "function"
    },
    {
      "inputs": [
        {
          "internalType": "address",
          "name": "addr",
          "type": "address"
        }
      ],
      "name": "setUsersContract",
      "outputs": [],
      "stateMutability": "nonpayable",
      "type": "function"
    },
    {
      "inputs": [
        {
          "internalType": "uint256",
          "name": "amount",
          "type": "uint256"
        }
      ],
      "name": "stakeToAccount",
      "outputs": [],
      "stateMutability": "nonpayable",
      "type": "function"
    },
    {
      "inputs": [
        {
          "internalType": "address",
          "name": "to",
          "type": "address"
        },
        {
          "internalType": "uint256",
          "name": "amount",
          "type": "uint256"
        }
      ],
      "name": "tipUser",
      "outputs": [],
      "stateMutability": "nonpayable",
      "type": "function"
    },
    {
      "inputs": [],
      "name": "tippingContract",
      "outputs": [
        {
          "internalType": "contract ITippingContract",
          "name": "",
          "type": "address"
        }
      ],
      "stateMutability": "view",
      "type": "function"
    },
    {
      "inputs": [
        {
          "internalType": "uint256",
          "name": "amount",
          "type": "uint256"
        }
      ],
      "name": "unstakeFromAccount",
      "outputs": [],
      "stateMutability": "nonpayable",
      "type": "function"
    },
    {
      "inputs": [],
      "name": "usersContract",
      "outputs": [
        {
          "internalType": "contract IBellshireUsers",
          "name": "",
          "type": "address"
        }
      ],
      "stateMutability": "view",
      "type": "function"
    }
  ],
  "bytecode": "0x608060405234801561001057600080fd5b50612502806100206000396000f3fe608060405234801561001057600080fd5b506004361061014d5760003560e01c80637ba730be116100c3578063cc3d967b1161007c578063cc3d967b1461033e578063d50c737714610372578063d71985a9146103a2578063dc7c62e2146103c0578063f8c8765e146103dc578063fe212d43146103f85761014d565b80637ba730be146102905780637d7d56f2146102c05780638da5cb5b146102dc578063a7821705146102fa578063b88a802f14610318578063c60bdc7f146103225761014d565b8063332d032511610115578063332d0325146101e257806339870082146101fe5780634251b3d61461022e57806343b9d2a51461024c57806358dd55fd146102685780636f26f7d8146102865761014d565b8063087ec686146101525780630a00e9bb1461016e578063142ebf3c1461018a57806329c24989146101a85780632b33f75a146101c4575b600080fd5b61016c60048036038101906101679190611996565b610414565b005b61018860048036038101906101839190611a7e565b6104e6565b005b6101926106e9565b60405161019f9190611b5e565b60405180910390f35b6101c260048036038101906101bd9190611996565b61070f565b005b6101cc6107e1565b6040516101d99190611b92565b60405180910390f35b6101fc60048036038101906101f79190611bd9565b610879565b005b61021860048036038101906102139190611c19565b610956565b6040516102259190611b92565b60405180910390f35b610236610a02565b6040516102439190611b92565b60405180910390f35b61026660048036038101906102619190611c19565b610aae565b005b610270610b88565b60405161027d9190611c67565b60405180910390f35b61028e610bae565b005b6102aa60048036038101906102a59190611996565b610c86565b6040516102b79190611c9d565b60405180910390f35b6102da60048036038101906102d59190611c19565b610d34565b005b6102e4610e0e565b6040516102f19190611cc7565b60405180910390f35b610302610e32565b60405161030f9190611b92565b60405180910390f35b610320610ed5565b005b61033c60048036038101906103379190611996565b610fac565b005b61035860048036038101906103539190611996565b61107e565b604051610369959493929190611ce2565b60405180910390f35b61038c60048036038101906103879190611c19565b611135565b6040516103999190611c9d565b60405180910390f35b6103aa611224565b6040516103b79190611d56565b60405180910390f35b6103da60048036038101906103d59190611c19565b61124a565b005b6103f660048036038101906103f19190611d71565b611389565b005b610412600480360381019061040d9190611c19565b6117d1565b005b60008054906101000a900473ffffffffffffffffffffffffffffffffffffffff1673ffffffffffffffffffffffffffffffffffffffff163373ffffffffffffffffffffffffffffffffffffffff16146104a2576040517f08c379a000000000000000000000000000000000000000000000000000000000815260040161049990611e35565b60405180910390fd5b80600360006101000a81548173ffffffffffffffffffffffffffffffffffffffff021916908373ffffffffffffffffffffffffffffffffffffffff16021790555050565b60008054906101000a900473ffffffffffffffffffffffffffffffffffffffff1673ffffffffffffffffffffffffffffffffffffffff163373ffffffffffffffffffffffffffffffffffffffff1614610574576040517f08c379a000000000000000000000000000000000000000000000000000000000815260040161056b90611e35565b60405180910390fd5b8181905084849050146105bc576040517f08c379a00000000000000000000000000000000000000000000000000000000081526004016105b390611ea1565b60405180910390fd5b60005b848490508110156106e2576105fa8585838181106105e0576105df611ec1565b5b90506020020160208101906105f59190611996565b610c86565b156106cf57600160009054906101000a900473ffffffffffffffffffffffffffffffffffffffff1673ffffffffffffffffffffffffffffffffffffffff16634f3f6ca28686848181106106505761064f611ec1565b5b90506020020160208101906106659190611996565b85858581811061067857610677611ec1565b5b905060200201356040518363ffffffff1660e01b815260040161069c929190611ef0565b600060405180830381600087803b1580156106b657600080fd5b505af11580156106ca573d6000803e3d6000fd5b505050505b80806106da90611f48565b9150506105bf565b5050505050565b600160009054906101000a900473ffffffffffffffffffffffffffffffffffffffff1681565b60008054906101000a900473ffffffffffffffffffffffffffffffffffffffff1673ffffffffffffffffffffffffffffffffffffffff163373ffffffffffffffffffffffffffffffffffffffff161461079d576040517f08c379a000000000000000000000000000000000000000000000000000000000815260040161079490611e35565b60405180910390fd5b80600260006101000a81548173ffffffffffffffffffffffffffffffffffffffff021916908373ffffffffffffffffffffffffffffffffffffffff16021790555050565b6000600360009054906101000a900473ffffffffffffffffffffffffffffffffffffffff1673ffffffffffffffffffffffffffffffffffffffff16634218a4716040518163ffffffff1660e01b8152600401602060405180830381865afa158015610850573d6000803e3d6000fd5b505050506040513d601f19601f820116820180604052508101906108749190611fa5565b905090565b61088282610c86565b6108c1576040517f08c379a00000000000000000000000000000000000000000000000000000000081526004016108b89061201e565b60405180910390fd5b600260009054906101000a900473ffffffffffffffffffffffffffffffffffffffff1673ffffffffffffffffffffffffffffffffffffffff1663d82555f13384846040518463ffffffff1660e01b81526004016109209392919061203e565b600060405180830381600087803b15801561093a57600080fd5b505af115801561094e573d6000803e3d6000fd5b505050505050565b600080600360009054906101000a900473ffffffffffffffffffffffffffffffffffffffff1673ffffffffffffffffffffffffffffffffffffffff1663e5949b5d846040518263ffffffff1660e01b81526004016109b49190611b92565b606060405180830381865afa1580156109d1573d6000803e3d6000fd5b505050506040513d601f19601f820116820180604052508101906109f591906120b6565b5091505080915050919050565b600080600160009054906101000a900473ffffffffffffffffffffffffffffffffffffffff1673ffffffffffffffffffffffffffffffffffffffff1663a87430ba336040518263ffffffff1660e01b8152600401610a609190611cc7565b60a060405180830381865afa158015610a7d573d6000803e3d6000fd5b505050506040513d601f19601f82011682018060405250810190610aa19190612109565b5050505090508091505090565b610ab733610c86565b610af6576040517f08c379a0000000000000000000000000000000000000000000000000000000008152600401610aed906121d0565b60405180910390fd5b600160009054906101000a900473ffffffffffffffffffffffffffffffffffffffff1673ffffffffffffffffffffffffffffffffffffffff1663adc9772e33836040518363ffffffff1660e01b8152600401610b53929190611ef0565b600060405180830381600087803b158015610b6d57600080fd5b505af1158015610b81573d6000803e3d6000fd5b5050505050565b600260009054906101000a900473ffffffffffffffffffffffffffffffffffffffff1681565b610bb733610c86565b15610bf7576040517f08c379a0000000000000000000000000000000000000000000000000000000008152600401610bee9061223c565b60405180910390fd5b600160009054906101000a900473ffffffffffffffffffffffffffffffffffffffff1673ffffffffffffffffffffffffffffffffffffffff16631c5a9d9c336040518263ffffffff1660e01b8152600401610c529190611cc7565b600060405180830381600087803b158015610c6c57600080fd5b505af1158015610c80573d6000803e3d6000fd5b50505050565b600080600160009054906101000a900473ffffffffffffffffffffffffffffffffffffffff1673ffffffffffffffffffffffffffffffffffffffff1663a87430ba846040518263ffffffff1660e01b8152600401610ce49190611cc7565b60a060405180830381865afa158015610d01573d6000803e3d6000fd5b505050506040513d601f19601f82011682018060405250810190610d259190612109565b94505050505080915050919050565b610d3d33610c86565b610d7c576040517f08c379a0000000000000000000000000000000000000000000000000000000008152600401610d73906121d0565b60405180910390fd5b600160009054906101000a900473ffffffffffffffffffffffffffffffffffffffff1673ffffffffffffffffffffffffffffffffffffffff1663c2a672e033836040518363ffffffff1660e01b8152600401610dd9929190611ef0565b600060405180830381600087803b158015610df357600080fd5b505af1158015610e07573d6000803e3d6000fd5b5050505050565b60008054906101000a900473ffffffffffffffffffffffffffffffffffffffff1681565b6000600160009054906101000a900473ffffffffffffffffffffffffffffffffffffffff1673ffffffffffffffffffffffffffffffffffffffff16637c6e412a336040518263ffffffff1660e01b8152600401610e8f9190611cc7565b602060405180830381865afa158015610eac573d6000803e3d6000fd5b505050506040513d601f19601f82011682018060405250810190610ed09190611fa5565b905090565b610ede33610c86565b610f1d576040517f08c379a0000000000000000000000000000000000000000000000000000000008152600401610f14906121d0565b60405180910390fd5b600160009054906101000a900473ffffffffffffffffffffffffffffffffffffffff1673ffffffffffffffffffffffffffffffffffffffff1663d279c191336040518263ffffffff1660e01b8152600401610f789190611cc7565b600060405180830381600087803b158015610f9257600080fd5b505af1158015610fa6573d6000803e3d6000fd5b50505050565b60008054906101000a900473ffffffffffffffffffffffffffffffffffffffff1673ffffffffffffffffffffffffffffffffffffffff163373ffffffffffffffffffffffffffffffffffffffff161461103a576040517f08c379a000000000000000000000000000000000000000000000000000000000815260040161103190611e35565b60405180910390fd5b80600160006101000a81548173ffffffffffffffffffffffffffffffffffffffff021916908373ffffffffffffffffffffffffffffffffffffffff16021790555050565b6000806000806000600160009054906101000a900473ffffffffffffffffffffffffffffffffffffffff1673ffffffffffffffffffffffffffffffffffffffff1663a87430ba876040518263ffffffff1660e01b81526004016110e19190611cc7565b60a060405180830381865afa1580156110fe573d6000803e3d6000fd5b505050506040513d601f19601f820116820180604052508101906111229190612109565b9450945094509450945091939590929450565b600061114033610c86565b61117f576040517f08c379a0000000000000000000000000000000000000000000000000000000008152600401611176906121d0565b60405180910390fd5b600360009054906101000a900473ffffffffffffffffffffffffffffffffffffffff1673ffffffffffffffffffffffffffffffffffffffff16637d9e10f583336040518363ffffffff1660e01b81526004016111dc92919061225c565b602060405180830381865afa1580156111f9573d6000803e3d6000fd5b505050506040513d601f19601f8201168201806040525081019061121d9190612285565b9050919050565b600360009054906101000a900473ffffffffffffffffffffffffffffffffffffffff1681565b61125333610c86565b611292576040517f08c379a0000000000000000000000000000000000000000000000000000000008152600401611289906121d0565b60405180910390fd5b6000600360009054906101000a900473ffffffffffffffffffffffffffffffffffffffff1673ffffffffffffffffffffffffffffffffffffffff1663bb510a7733846040518363ffffffff1660e01b81526004016112f1929190611ef0565b6020604051808303816000875af1158015611310573d6000803e3d6000fd5b505050506040513d601f19601f820116820180604052508101906113349190611fa5565b90503373ffffffffffffffffffffffffffffffffffffffff16817ff4b1a50d90f85f99705117676fa16036131c1e8a9555a27542887679ea9911e48460405161137d9190611b92565b60405180910390a35050565b60006113936118ef565b905060008160000160089054906101000a900460ff1615905060008260000160009054906101000a900467ffffffffffffffff1690506000808267ffffffffffffffff161480156113e15750825b9050600060018367ffffffffffffffff16148015611416575060003073ffffffffffffffffffffffffffffffffffffffff163b145b905081158015611424575080155b1561145b576040517ff92ee8a900000000000000000000000000000000000000000000000000000000815260040160405180910390fd5b60018560000160006101000a81548167ffffffffffffffff021916908367ffffffffffffffff16021790555083156114ab5760018560000160086101000a81548160ff0219169083151502179055505b600073ffffffffffffffffffffffffffffffffffffffff168973ffffffffffffffffffffffffffffffffffffffff160361151a576040517f08c379a0000000000000000000000000000000000000000000000000000000008152600401611511906122fe565b60405180910390fd5b600073ffffffffffffffffffffffffffffffffffffffff168873ffffffffffffffffffffffffffffffffffffffff1603611589576040517f08c379a00000000000000000000000000000000000000000000000000000000081526004016115809061236a565b60405180910390fd5b600073ffffffffffffffffffffffffffffffffffffffff168773ffffffffffffffffffffffffffffffffffffffff16036115f8576040517f08c379a00000000000000000000000000000000000000000000000000000000081526004016115ef906123d6565b60405180910390fd5b600073ffffffffffffffffffffffffffffffffffffffff168673ffffffffffffffffffffffffffffffffffffffff1603611667576040517f08c379a000000000000000000000000000000000000000000000000000000000815260040161165e90612442565b60405180910390fd5b886000806101000a81548173ffffffffffffffffffffffffffffffffffffffff021916908373ffffffffffffffffffffffffffffffffffffffff16021790555087600160006101000a81548173ffffffffffffffffffffffffffffffffffffffff021916908373ffffffffffffffffffffffffffffffffffffffff16021790555086600260006101000a81548173ffffffffffffffffffffffffffffffffffffffff021916908373ffffffffffffffffffffffffffffffffffffffff16021790555085600360006101000a81548173ffffffffffffffffffffffffffffffffffffffff021916908373ffffffffffffffffffffffffffffffffffffffff16021790555083156117c65760008560000160086101000a81548160ff0219169083151502179055507fc7f505b2f371ae2175ee4913f4499e1f2633a7b5936321eed1cdaeb6115181d260016040516117bd91906124b1565b60405180910390a15b505050505050505050565b6117da33610c86565b611819576040517f08c379a0000000000000000000000000000000000000000000000000000000008152600401611810906121d0565b60405180910390fd5b600360009054906101000a900473ffffffffffffffffffffffffffffffffffffffff1673ffffffffffffffffffffffffffffffffffffffff1663665cca2933836040518363ffffffff1660e01b8152600401611876929190611ef0565b600060405180830381600087803b15801561189057600080fd5b505af11580156118a4573d6000803e3d6000fd5b505050503373ffffffffffffffffffffffffffffffffffffffff16817f749b6b5acdef8ccba6a0cbbcb0857ca040e56d10d38ec9b037a3beb533f07b5c60405160405180910390a350565b6000806118fa611903565b90508091505090565b60007ff0c57e16840df040f15088dc2f81fe391c3923bec73e23a9662efc9c229c6a0060001b905090565b600080fd5b600080fd5b600073ffffffffffffffffffffffffffffffffffffffff82169050919050565b600061196382611938565b9050919050565b61197381611958565b811461197e57600080fd5b50565b6000813590506119908161196a565b92915050565b6000602082840312156119ac576119ab61192e565b5b60006119ba84828501611981565b91505092915050565b600080fd5b600080fd5b600080fd5b60008083601f8401126119e8576119e76119c3565b5b8235905067ffffffffffffffff811115611a0557611a046119c8565b5b602083019150836020820283011115611a2157611a206119cd565b5b9250929050565b60008083601f840112611a3e57611a3d6119c3565b5b8235905067ffffffffffffffff811115611a5b57611a5a6119c8565b5b602083019150836020820283011115611a7757611a766119cd565b5b9250929050565b60008060008060408587031215611a9857611a9761192e565b5b600085013567ffffffffffffffff811115611ab657611ab5611933565b5b611ac2878288016119d2565b9450945050602085013567ffffffffffffffff811115611ae557611ae4611933565b5b611af187828801611a28565b925092505092959194509250565b6000819050919050565b6000611b24611b1f611b1a84611938565b611aff565b611938565b9050919050565b6000611b3682611b09565b9050919050565b6000611b4882611b2b565b9050919050565b611b5881611b3d565b82525050565b6000602082019050611b736000830184611b4f565b92915050565b6000819050919050565b611b8c81611b79565b82525050565b6000602082019050611ba76000830184611b83565b92915050565b611bb681611b79565b8114611bc157600080fd5b50565b600081359050611bd381611bad565b92915050565b60008060408385031215611bf057611bef61192e565b5b6000611bfe85828601611981565b9250506020611c0f85828601611bc4565b9150509250929050565b600060208284031215611c2f57611c2e61192e565b5b6000611c3d84828501611bc4565b91505092915050565b6000611c5182611b2b565b9050919050565b611c6181611c46565b82525050565b6000602082019050611c7c6000830184611c58565b92915050565b60008115159050919050565b611c9781611c82565b82525050565b6000602082019050611cb26000830184611c8e565b92915050565b611cc181611958565b82525050565b6000602082019050611cdc6000830184611cb8565b92915050565b600060a082019050611cf76000830188611b83565b611d046020830187611b83565b611d116040830186611b83565b611d1e6060830185611b83565b611d2b6080830184611c8e565b9695505050505050565b6000611d4082611b2b565b9050919050565b611d5081611d35565b82525050565b6000602082019050611d6b6000830184611d47565b92915050565b60008060008060808587031215611d8b57611d8a61192e565b5b6000611d9987828801611981565b9450506020611daa87828801611981565b9350506040611dbb87828801611981565b9250506060611dcc87828801611981565b91505092959194509250565b600082825260208201905092915050565b7f4f6e6c79206f776e657200000000000000000000000000000000000000000000600082015250565b6000611e1f600a83611dd8565b9150611e2a82611de9565b602082019050919050565b60006020820190508181036000830152611e4e81611e12565b9050919050565b7f496e707574206c656e677468206d69736d617463680000000000000000000000600082015250565b6000611e8b601583611dd8565b9150611e9682611e55565b602082019050919050565b60006020820190508181036000830152611eba81611e7e565b9050919050565b7f4e487b7100000000000000000000000000000000000000000000000000000000600052603260045260246000fd5b6000604082019050611f056000830185611cb8565b611f126020830184611b83565b9392505050565b7f4e487b7100000000000000000000000000000000000000000000000000000000600052601160045260246000fd5b6000611f5382611b79565b91507fffffffffffffffffffffffffffffffffffffffffffffffffffffffffffffffff8203611f8557611f84611f19565b5b600182019050919050565b600081519050611f9f81611bad565b92915050565b600060208284031215611fbb57611fba61192e565b5b6000611fc984828501611f90565b91505092915050565b7f5265636569766572204163636f756e7420556e61637469766174656400000000600082015250565b6000612008601c83611dd8565b915061201382611fd2565b602082019050919050565b6000602082019050818103600083015261203781611ffb565b9050919050565b60006060820190506120536000830186611cb8565b6120606020830185611cb8565b61206d6040830184611b83565b949350505050565b6000815190506120848161196a565b92915050565b61209381611c82565b811461209e57600080fd5b50565b6000815190506120b08161208a565b92915050565b6000806000606084860312156120cf576120ce61192e565b5b60006120dd86828701612075565b93505060206120ee86828701611f90565b92505060406120ff868287016120a1565b9150509250925092565b600080600080600060a086880312156121255761212461192e565b5b600061213388828901611f90565b955050602061214488828901611f90565b945050604061215588828901611f90565b935050606061216688828901611f90565b9250506080612177888289016120a1565b9150509295509295909350565b7f556e616374697661746564000000000000000000000000000000000000000000600082015250565b60006121ba600b83611dd8565b91506121c582612184565b602082019050919050565b600060208201905081810360008301526121e9816121ad565b9050919050565b7f416c726561647920616374697661746564000000000000000000000000000000600082015250565b6000612226601183611dd8565b9150612231826121f0565b602082019050919050565b6000602082019050818103600083015261225581612219565b9050919050565b60006040820190506122716000830185611b83565b61227e6020830184611cb8565b9392505050565b60006020828403121561229b5761229a61192e565b5b60006122a9848285016120a1565b91505092915050565b7f496e76616c6964206f776e657200000000000000000000000000000000000000600082015250565b60006122e8600d83611dd8565b91506122f3826122b2565b602082019050919050565b60006020820190508181036000830152612317816122db565b9050919050565b7f496e76616c6964207573657273436f6e74726163740000000000000000000000600082015250565b6000612354601583611dd8565b915061235f8261231e565b602082019050919050565b6000602082019050818103600083015261238381612347565b9050919050565b7f496e76616c69642074697070696e67436f6e7472616374000000000000000000600082015250565b60006123c0601783611dd8565b91506123cb8261238a565b602082019050919050565b600060208201905081810360008301526123ef816123b3565b9050919050565b7f496e76616c6964207072656d69756d4368616e6e656c436f6e74726163740000600082015250565b600061242c601e83611dd8565b9150612437826123f6565b602082019050919050565b6000602082019050818103600083015261245b8161241f565b9050919050565b6000819050919050565b600067ffffffffffffffff82169050919050565b600061249b61249661249184612462565b611aff565b61246c565b9050919050565b6124ab81612480565b82525050565b60006020820190506124c660008301846124a2565b9291505056fea264697066735822122052ba854ff4fab77590c86a23237f5f074cfcc48ab5a9ead0058a24f84a6db34c64736f6c63430008140033",
  "linkReferences": {},
  "deployedLinkReferences": {}
}