{
  "_format": "hh-sol-artifact-1",
  "contractName": "BellshireLogic",
  "sourceName": "contracts/BellshireMain.sol",
  "abi": [
    {
      "inputs": [],
      "name": "InvalidInitialization",
      "type": "error"
    },
    {
      "inputs": [],
      "name": "NotInitializing",
      "type": "error"
    },
    {
      "anonymous": false,
      "inputs": [
        {
          "indexed": true,
          "internalType": "uint256",
          "name": "channelId",
          "type": "uint256"
        },
        {
          "indexed": true,
          "internalType": "address",
          "name": "creator",
          "type": "address"
        },
        {
          "indexed": false,
          "internalType": "uint256",
          "name": "price",
          "type": "uint256"
        }
      ],
      "name": "ChannelCreated",
      "type": "event"
    },
    {
      "anonymous": false,
      "inputs": [
        {
          "indexed": false,
          "internalType": "uint64",
          "name": "version",
          "type": "uint64"
        }
      ],
      "name": "Initialized",
      "type": "event"
    },
    {
      "anonymous": false,
      "inputs": [
        {
          "indexed": true,
          "internalType": "uint256",
          "name": "channelId",
          "type": "uint256"
        },
        {
          "indexed": true,
          "internalType": "address",
          "name": "user",
          "type": "address"
        }
      ],
      "name": "JoinedChannel",
      "type": "event"
    },
    {
      "inputs": [
        {
          "internalType": "uint256",
          "name": "amount",
          "type": "uint256"
        }
      ],
      "name": "activateAccount",
      "outputs": [],
      "stateMutability": "nonpayable",
      "type": "function"
    },
    {
      "inputs": [
        {
          "internalType": "address",
          "name": "user",
          "type": "address"
        }
      ],
      "name": "checkIsActivated",
      "outputs": [
        {
          "internalType": "bool",
          "name": "",
          "type": "bool"
        }
      ],
      "stateMutability": "view",
      "type": "function"
    },
    {
      "inputs": [],
      "name": "claimReward",
      "outputs": [],
      "stateMutability": "nonpayable",
      "type": "function"
    },
    {
      "inputs": [
        {
          "internalType": "uint256",
          "name": "price",
          "type": "uint256"
        }
      ],
      "name": "createPremiumChannel",
      "outputs": [],
      "stateMutability": "nonpayable",
      "type": "function"
    },
    {
      "inputs": [],
      "name": "getChannelCreationFee",
      "outputs": [
        {
          "internalType": "uint256",
          "name": "",
          "type": "uint256"
        }
      ],
      "stateMutability": "view",
      "type": "function"
    },
    {
      "inputs": [
        {
          "internalType": "uint256",
          "name": "channelId",
          "type": "uint256"
        }
      ],
      "name": "getChannelPrice",
      "outputs": [
        {
          "internalType": "uint256",
          "name": "",
          "type": "uint256"
        }
      ],
      "stateMutability": "view",
      "type": "function"
    },
    {
      "inputs": [],
      "name": "getLastActivityScore",
      "outputs": [
        {
          "internalType": "uint256",
          "name": "",
          "type": "uint256"
        }
      ],
      "stateMutability": "view",
      "type": "function"
    },
    {
      "inputs": [],
      "name": "getStackAmount",
      "outputs": [
        {
          "internalType": "uint256",
          "name": "",
          "type": "uint256"
        }
      ],
      "stateMutability": "view",
      "type": "function"
    },
    {
      "inputs": [
        {
          "internalType": "address",
          "name": "user",
          "type": "address"
        }
      ],
      "name": "getUserDetails",
      "outputs": [
        {
          "internalType": "uint256",
          "name": "stakedAmount",
          "type": "uint256"
        },
        {
          "internalType": "uint256",
          "name": "stakeTimestamp",
          "type": "uint256"
        },
        {
          "internalType": "uint256",
          "name": "lastActivityScore",
          "type": "uint256"
        },
        {
          "internalType": "uint256",
          "name": "lastRewardClaim",
          "type": "uint256"
        },
        {
          "internalType": "bool",
          "name": "isActivated",
          "type": "bool"
        }
      ],
      "stateMutability": "view",
      "type": "function"
    },
    {
      "inputs": [
        {
          "internalType": "address",
          "name": "_owner",
          "type": "address"
        },
        {
          "internalType": "address",
          "name": "_usersContract",
          "type": "address"
        },
        {
          "internalType": "address",
          "name": "_tippingContract",
          "type": "address"
        },
        {
          "internalType": "address",
          "name": "_premiumChannelContract",
          "type": "address"
        }
      ],
      "name": "initialize",
      "outputs": [],
      "stateMutability": "nonpayable",
      "type": "function"
    },
    {
      "inputs": [
        {
          "internalType": "uint256",
          "name": "channelId",
          "type": "uint256"
        }
      ],
      "name": "isMember",
      "outputs": [
        {
          "internalType": "bool",
          "name": "",
          "type": "bool"
        }
      ],
      "stateMutability": "view",
      "type": "function"
    },
    {
      "inputs": [
        {
          "internalType": "uint256",
          "name": "channelId",
          "type": "uint256"
        }
      ],
      "name": "joinPremiumChannel",
      "outputs": [],
      "stateMutability": "nonpayable",
      "type": "function"
    },
    {
      "inputs": [],
      "name": "owner",
      "outputs": [
        {
          "internalType": "address",
          "name": "",
          "type": "address"
        }
      ],
      "stateMutability": "view",
      "type": "function"
    },
    {
      "inputs": [],
      "name": "premiumChannelContract",
      "outputs": [
        {
          "internalType": "contract IPremiumChannelContract",
          "name": "",
          "type": "address"
        }
      ],
      "stateMutability": "view",
      "type": "function"
    },
    {
      "inputs": [
        {
          "internalType": "address[]",
          "name": "users",
          "type": "address[]"
        },
        {
          "internalType": "uint256[]",
          "name": "bytesSent",
          "type": "uint256[]"
        }
      ],
      "name": "recordUserActivity",
      "outputs": [],
      "stateMutability": "nonpayable",
      "type": "function"
    },
    {
      "inputs": [
        {
          "internalType": "address",
          "name": "addr",
          "type": "address"
        }
      ],
      "name": "setPremiumChannelContract",
      "outputs": [],
      "stateMutability": "nonpayable",
      "type": "function"
    },
    {
      "inputs": [
        {
          "internalType": "address",
          "name": "addr",
          "type": "address"
        }
      ],
      "name": "setTippingContract",
      "outputs": [],
      "stateMutability": "nonpayable",
      "type": "function"
    },
    {
      "inputs": [
        {
          "internalType": "address",
          "name": "addr",
          "type": "address"
        }
      ],
      "name": "setUsersContract",
      "outputs": [],
      "stateMutability": "nonpayable",
      "type": "function"
    },
    {
      "inputs": [
        {
          "internalType": "uint256",
          "name": "amount",
          "type": "uint256"
        }
      ],
      "name": "stakeToAccount",
      "outputs": [],
      "stateMutability": "nonpayable",
      "type": "function"
    },
    {
      "inputs": [
        {
          "internalType": "address",
          "name": "to",
          "type": "address"
        },
        {
          "internalType": "uint256",
          "name": "amount",
          "type": "uint256"
        }
      ],
      "name": "tipUser",
      "outputs": [],
      "stateMutability": "nonpayable",
      "type": "function"
    },
    {
      "inputs": [],
      "name": "tippingContract",
      "outputs": [
        {
          "internalType": "contract ITippingContract",
          "name": "",
          "type": "address"
        }
      ],
      "stateMutability": "view",
      "type": "function"
    },
    {
      "inputs": [
        {
          "internalType": "uint256",
          "name": "amount",
          "type": "uint256"
        }
      ],
      "name": "unstakeFromAccount",
      "outputs": [],
      "stateMutability": "nonpayable",
      "type": "function"
    },
    {
      "inputs": [],
      "name": "usersContract",
      "outputs": [
        {
          "internalType": "contract IBellshireUsers",
          "name": "",
          "type": "address"
        }
      ],
      "stateMutability": "view",
      "type": "function"
    }
  ],
  "bytecode": "0x608060405234801561001057600080fd5b50612517806100206000396000f3fe608060405234801561001057600080fd5b506004361061014d5760003560e01c80637d7d56f2116100c3578063d50c73771161007c578063d50c737714610368578063d71985a914610398578063dc7c62e2146103b6578063e605712c146103d2578063f8c8765e146103ee578063fe212d431461040a5761014d565b80637d7d56f2146102b65780638da5cb5b146102d2578063a7821705146102f0578063b88a802f1461030e578063c60bdc7f14610318578063cc3d967b146103345761014d565b8063332d032511610115578063332d0325146101e257806339870082146101fe5780634251b3d61461022e57806343b9d2a51461024c57806358dd55fd146102685780637ba730be146102865761014d565b8063087ec686146101525780630a00e9bb1461016e578063142ebf3c1461018a57806329c24989146101a85780632b33f75a146101c4575b600080fd5b61016c600480360381019061016791906119ab565b610426565b005b61018860048036038101906101839190611a93565b6104f8565b005b6101926106fb565b60405161019f9190611b73565b60405180910390f35b6101c260048036038101906101bd91906119ab565b610721565b005b6101cc6107f3565b6040516101d99190611ba7565b60405180910390f35b6101fc60048036038101906101f79190611bee565b61088b565b005b61021860048036038101906102139190611c2e565b610968565b6040516102259190611ba7565b60405180910390f35b610236610a14565b6040516102439190611ba7565b60405180910390f35b61026660048036038101906102619190611c2e565b610ac0565b005b610270610b9a565b60405161027d9190611c7c565b60405180910390f35b6102a0600480360381019061029b91906119ab565b610bc0565b6040516102ad9190611cb2565b60405180910390f35b6102d060048036038101906102cb9190611c2e565b610c6e565b005b6102da610d48565b6040516102e79190611cdc565b60405180910390f35b6102f8610d6c565b6040516103059190611ba7565b60405180910390f35b610316610e0f565b005b610332600480360381019061032d91906119ab565b610ee6565b005b61034e600480360381019061034991906119ab565b610fb8565b60405161035f959493929190611cf7565b60405180910390f35b610382600480360381019061037d9190611c2e565b61106f565b60405161038f9190611cb2565b60405180910390f35b6103a061115e565b6040516103ad9190611d6b565b60405180910390f35b6103d060048036038101906103cb9190611c2e565b611184565b005b6103ec60048036038101906103e79190611c2e565b6112c3565b005b61040860048036038101906104039190611d86565b61139e565b005b610424600480360381019061041f9190611c2e565b6117e6565b005b60008054906101000a900473ffffffffffffffffffffffffffffffffffffffff1673ffffffffffffffffffffffffffffffffffffffff163373ffffffffffffffffffffffffffffffffffffffff16146104b4576040517f08c379a00000000000000000000000000000000000000000000000000000000081526004016104ab90611e4a565b60405180910390fd5b80600360006101000a81548173ffffffffffffffffffffffffffffffffffffffff021916908373ffffffffffffffffffffffffffffffffffffffff16021790555050565b60008054906101000a900473ffffffffffffffffffffffffffffffffffffffff1673ffffffffffffffffffffffffffffffffffffffff163373ffffffffffffffffffffffffffffffffffffffff1614610586576040517f08c379a000000000000000000000000000000000000000000000000000000000815260040161057d90611e4a565b60405180910390fd5b8181905084849050146105ce576040517f08c379a00000000000000000000000000000000000000000000000000000000081526004016105c590611eb6565b60405180910390fd5b60005b848490508110156106f45761060c8585838181106105f2576105f1611ed6565b5b905060200201602081019061060791906119ab565b610bc0565b156106e157600160009054906101000a900473ffffffffffffffffffffffffffffffffffffffff1673ffffffffffffffffffffffffffffffffffffffff16634f3f6ca286868481811061066257610661611ed6565b5b905060200201602081019061067791906119ab565b85858581811061068a57610689611ed6565b5b905060200201356040518363ffffffff1660e01b81526004016106ae929190611f05565b600060405180830381600087803b1580156106c857600080fd5b505af11580156106dc573d6000803e3d6000fd5b505050505b80806106ec90611f5d565b9150506105d1565b5050505050565b600160009054906101000a900473ffffffffffffffffffffffffffffffffffffffff1681565b60008054906101000a900473ffffffffffffffffffffffffffffffffffffffff1673ffffffffffffffffffffffffffffffffffffffff163373ffffffffffffffffffffffffffffffffffffffff16146107af576040517f08c379a00000000000000000000000000000000000000000000000000000000081526004016107a690611e4a565b60405180910390fd5b80600260006101000a81548173ffffffffffffffffffffffffffffffffffffffff021916908373ffffffffffffffffffffffffffffffffffffffff16021790555050565b6000600360009054906101000a900473ffffffffffffffffffffffffffffffffffffffff1673ffffffffffffffffffffffffffffffffffffffff16634218a4716040518163ffffffff1660e01b8152600401602060405180830381865afa158015610862573d6000803e3d6000fd5b505050506040513d601f19601f820116820180604052508101906108869190611fba565b905090565b61089482610bc0565b6108d3576040517f08c379a00000000000000000000000000000000000000000000000000000000081526004016108ca90612033565b60405180910390fd5b600260009054906101000a900473ffffffffffffffffffffffffffffffffffffffff1673ffffffffffffffffffffffffffffffffffffffff1663d82555f13384846040518463ffffffff1660e01b815260040161093293929190612053565b600060405180830381600087803b15801561094c57600080fd5b505af1158015610960573d6000803e3d6000fd5b505050505050565b600080600360009054906101000a900473ffffffffffffffffffffffffffffffffffffffff1673ffffffffffffffffffffffffffffffffffffffff1663e5949b5d846040518263ffffffff1660e01b81526004016109c69190611ba7565b606060405180830381865afa1580156109e3573d6000803e3d6000fd5b505050506040513d601f19601f82011682018060405250810190610a0791906120cb565b5091505080915050919050565b600080600160009054906101000a900473ffffffffffffffffffffffffffffffffffffffff1673ffffffffffffffffffffffffffffffffffffffff1663a87430ba336040518263ffffffff1660e01b8152600401610a729190611cdc565b60a060405180830381865afa158015610a8f573d6000803e3d6000fd5b505050506040513d601f19601f82011682018060405250810190610ab3919061211e565b5050505090508091505090565b610ac933610bc0565b610b08576040517f08c379a0000000000000000000000000000000000000000000000000000000008152600401610aff906121e5565b60405180910390fd5b600160009054906101000a900473ffffffffffffffffffffffffffffffffffffffff1673ffffffffffffffffffffffffffffffffffffffff1663adc9772e33836040518363ffffffff1660e01b8152600401610b65929190611f05565b600060405180830381600087803b158015610b7f57600080fd5b505af1158015610b93573d6000803e3d6000fd5b5050505050565b600260009054906101000a900473ffffffffffffffffffffffffffffffffffffffff1681565b600080600160009054906101000a900473ffffffffffffffffffffffffffffffffffffffff1673ffffffffffffffffffffffffffffffffffffffff1663a87430ba846040518263ffffffff1660e01b8152600401610c1e9190611cdc565b60a060405180830381865afa158015610c3b573d6000803e3d6000fd5b505050506040513d601f19601f82011682018060405250810190610c5f919061211e565b94505050505080915050919050565b610c7733610bc0565b610cb6576040517f08c379a0000000000000000000000000000000000000000000000000000000008152600401610cad906121e5565b60405180910390fd5b600160009054906101000a900473ffffffffffffffffffffffffffffffffffffffff1673ffffffffffffffffffffffffffffffffffffffff1663c2a672e033836040518363ffffffff1660e01b8152600401610d13929190611f05565b600060405180830381600087803b158015610d2d57600080fd5b505af1158015610d41573d6000803e3d6000fd5b5050505050565b60008054906101000a900473ffffffffffffffffffffffffffffffffffffffff1681565b6000600160009054906101000a900473ffffffffffffffffffffffffffffffffffffffff1673ffffffffffffffffffffffffffffffffffffffff16637c6e412a336040518263ffffffff1660e01b8152600401610dc99190611cdc565b602060405180830381865afa158015610de6573d6000803e3d6000fd5b505050506040513d601f19601f82011682018060405250810190610e0a9190611fba565b905090565b610e1833610bc0565b610e57576040517f08c379a0000000000000000000000000000000000000000000000000000000008152600401610e4e906121e5565b60405180910390fd5b600160009054906101000a900473ffffffffffffffffffffffffffffffffffffffff1673ffffffffffffffffffffffffffffffffffffffff1663d279c191336040518263ffffffff1660e01b8152600401610eb29190611cdc565b600060405180830381600087803b158015610ecc57600080fd5b505af1158015610ee0573d6000803e3d6000fd5b50505050565b60008054906101000a900473ffffffffffffffffffffffffffffffffffffffff1673ffffffffffffffffffffffffffffffffffffffff163373ffffffffffffffffffffffffffffffffffffffff1614610f74576040517f08c379a0000000000000000000000000000000000000000000000000000000008152600401610f6b90611e4a565b60405180910390fd5b80600160006101000a81548173ffffffffffffffffffffffffffffffffffffffff021916908373ffffffffffffffffffffffffffffffffffffffff16021790555050565b6000806000806000600160009054906101000a900473ffffffffffffffffffffffffffffffffffffffff1673ffffffffffffffffffffffffffffffffffffffff1663a87430ba876040518263ffffffff1660e01b815260040161101b9190611cdc565b60a060405180830381865afa158015611038573d6000803e3d6000fd5b505050506040513d601f19601f8201168201806040525081019061105c919061211e565b9450945094509450945091939590929450565b600061107a33610bc0565b6110b9576040517f08c379a00000000000000000000000000000000000000000000000000000000081526004016110b0906121e5565b60405180910390fd5b600360009054906101000a900473ffffffffffffffffffffffffffffffffffffffff1673ffffffffffffffffffffffffffffffffffffffff16637d9e10f583336040518363ffffffff1660e01b8152600401611116929190612205565b602060405180830381865afa158015611133573d6000803e3d6000fd5b505050506040513d601f19601f82011682018060405250810190611157919061222e565b9050919050565b600360009054906101000a900473ffffffffffffffffffffffffffffffffffffffff1681565b61118d33610bc0565b6111cc576040517f08c379a00000000000000000000000000000000000000000000000000000000081526004016111c3906121e5565b60405180910390fd5b6000600360009054906101000a900473ffffffffffffffffffffffffffffffffffffffff1673ffffffffffffffffffffffffffffffffffffffff1663bb510a7733846040518363ffffffff1660e01b815260040161122b929190611f05565b6020604051808303816000875af115801561124a573d6000803e3d6000fd5b505050506040513d601f19601f8201168201806040525081019061126e9190611fba565b90503373ffffffffffffffffffffffffffffffffffffffff16817ff4b1a50d90f85f99705117676fa16036131c1e8a9555a27542887679ea9911e4846040516112b79190611ba7565b60405180910390a35050565b6112cc33610bc0565b1561130c576040517f08c379a0000000000000000000000000000000000000000000000000000000008152600401611303906122a7565b60405180910390fd5b600160009054906101000a900473ffffffffffffffffffffffffffffffffffffffff1673ffffffffffffffffffffffffffffffffffffffff1663ca11be6933836040518363ffffffff1660e01b8152600401611369929190611f05565b600060405180830381600087803b15801561138357600080fd5b505af1158015611397573d6000803e3d6000fd5b5050505050565b60006113a8611904565b905060008160000160089054906101000a900460ff1615905060008260000160009054906101000a900467ffffffffffffffff1690506000808267ffffffffffffffff161480156113f65750825b9050600060018367ffffffffffffffff1614801561142b575060003073ffffffffffffffffffffffffffffffffffffffff163b145b905081158015611439575080155b15611470576040517ff92ee8a900000000000000000000000000000000000000000000000000000000815260040160405180910390fd5b60018560000160006101000a81548167ffffffffffffffff021916908367ffffffffffffffff16021790555083156114c05760018560000160086101000a81548160ff0219169083151502179055505b600073ffffffffffffffffffffffffffffffffffffffff168973ffffffffffffffffffffffffffffffffffffffff160361152f576040517f08c379a000000000000000000000000000000000000000000000000000000000815260040161152690612313565b60405180910390fd5b600073ffffffffffffffffffffffffffffffffffffffff168873ffffffffffffffffffffffffffffffffffffffff160361159e576040517f08c379a00000000000000000000000000000000000000000000000000000000081526004016115959061237f565b60405180910390fd5b600073ffffffffffffffffffffffffffffffffffffffff168773ffffffffffffffffffffffffffffffffffffffff160361160d576040517f08c379a0000000000000000000000000000000000000000000000000000000008152600401611604906123eb565b60405180910390fd5b600073ffffffffffffffffffffffffffffffffffffffff168673ffffffffffffffffffffffffffffffffffffffff160361167c576040517f08c379a000000000000000000000000000000000000000000000000000000000815260040161167390612457565b60405180910390fd5b886000806101000a81548173ffffffffffffffffffffffffffffffffffffffff021916908373ffffffffffffffffffffffffffffffffffffffff16021790555087600160006101000a81548173ffffffffffffffffffffffffffffffffffffffff021916908373ffffffffffffffffffffffffffffffffffffffff16021790555086600260006101000a81548173ffffffffffffffffffffffffffffffffffffffff021916908373ffffffffffffffffffffffffffffffffffffffff16021790555085600360006101000a81548173ffffffffffffffffffffffffffffffffffffffff021916908373ffffffffffffffffffffffffffffffffffffffff16021790555083156117db5760008560000160086101000a81548160ff0219169083151502179055507fc7f505b2f371ae2175ee4913f4499e1f2633a7b5936321eed1cdaeb6115181d260016040516117d291906124c6565b60405180910390a15b505050505050505050565b6117ef33610bc0565b61182e576040517f08c379a0000000000000000000000000000000000000000000000000000000008152600401611825906121e5565b60405180910390fd5b600360009054906101000a900473ffffffffffffffffffffffffffffffffffffffff1673ffffffffffffffffffffffffffffffffffffffff1663665cca2933836040518363ffffffff1660e01b815260040161188b929190611f05565b600060405180830381600087803b1580156118a557600080fd5b505af11580156118b9573d6000803e3d6000fd5b505050503373ffffffffffffffffffffffffffffffffffffffff16817f749b6b5acdef8ccba6a0cbbcb0857ca040e56d10d38ec9b037a3beb533f07b5c60405160405180910390a350565b60008061190f611918565b90508091505090565b60007ff0c57e16840df040f15088dc2f81fe391c3923bec73e23a9662efc9c229c6a0060001b905090565b600080fd5b600080fd5b600073ffffffffffffffffffffffffffffffffffffffff82169050919050565b60006119788261194d565b9050919050565b6119888161196d565b811461199357600080fd5b50565b6000813590506119a58161197f565b92915050565b6000602082840312156119c1576119c0611943565b5b60006119cf84828501611996565b91505092915050565b600080fd5b600080fd5b600080fd5b60008083601f8401126119fd576119fc6119d8565b5b8235905067ffffffffffffffff811115611a1a57611a196119dd565b5b602083019150836020820283011115611a3657611a356119e2565b5b9250929050565b60008083601f840112611a5357611a526119d8565b5b8235905067ffffffffffffffff811115611a7057611a6f6119dd565b5b602083019150836020820283011115611a8c57611a8b6119e2565b5b9250929050565b60008060008060408587031215611aad57611aac611943565b5b600085013567ffffffffffffffff811115611acb57611aca611948565b5b611ad7878288016119e7565b9450945050602085013567ffffffffffffffff811115611afa57611af9611948565b5b611b0687828801611a3d565b925092505092959194509250565b6000819050919050565b6000611b39611b34611b2f8461194d565b611b14565b61194d565b9050919050565b6000611b4b82611b1e565b9050919050565b6000611b5d82611b40565b9050919050565b611b6d81611b52565b82525050565b6000602082019050611b886000830184611b64565b92915050565b6000819050919050565b611ba181611b8e565b82525050565b6000602082019050611bbc6000830184611b98565b92915050565b611bcb81611b8e565b8114611bd657600080fd5b50565b600081359050611be881611bc2565b92915050565b60008060408385031215611c0557611c04611943565b5b6000611c1385828601611996565b9250506020611c2485828601611bd9565b9150509250929050565b600060208284031215611c4457611c43611943565b5b6000611c5284828501611bd9565b91505092915050565b6000611c6682611b40565b9050919050565b611c7681611c5b565b82525050565b6000602082019050611c916000830184611c6d565b92915050565b60008115159050919050565b611cac81611c97565b82525050565b6000602082019050611cc76000830184611ca3565b92915050565b611cd68161196d565b82525050565b6000602082019050611cf16000830184611ccd565b92915050565b600060a082019050611d0c6000830188611b98565b611d196020830187611b98565b611d266040830186611b98565b611d336060830185611b98565b611d406080830184611ca3565b9695505050505050565b6000611d5582611b40565b9050919050565b611d6581611d4a565b82525050565b6000602082019050611d806000830184611d5c565b92915050565b60008060008060808587031215611da057611d9f611943565b5b6000611dae87828801611996565b9450506020611dbf87828801611996565b9350506040611dd087828801611996565b9250506060611de187828801611996565b91505092959194509250565b600082825260208201905092915050565b7f4f6e6c79206f776e657200000000000000000000000000000000000000000000600082015250565b6000611e34600a83611ded565b9150611e3f82611dfe565b602082019050919050565b60006020820190508181036000830152611e6381611e27565b9050919050565b7f496e707574206c656e677468206d69736d617463680000000000000000000000600082015250565b6000611ea0601583611ded565b9150611eab82611e6a565b602082019050919050565b60006020820190508181036000830152611ecf81611e93565b9050919050565b7f4e487b7100000000000000000000000000000000000000000000000000000000600052603260045260246000fd5b6000604082019050611f1a6000830185611ccd565b611f276020830184611b98565b9392505050565b7f4e487b7100000000000000000000000000000000000000000000000000000000600052601160045260246000fd5b6000611f6882611b8e565b91507fffffffffffffffffffffffffffffffffffffffffffffffffffffffffffffffff8203611f9a57611f99611f2e565b5b600182019050919050565b600081519050611fb481611bc2565b92915050565b600060208284031215611fd057611fcf611943565b5b6000611fde84828501611fa5565b91505092915050565b7f5265636569766572204163636f756e7420556e61637469766174656400000000600082015250565b600061201d601c83611ded565b915061202882611fe7565b602082019050919050565b6000602082019050818103600083015261204c81612010565b9050919050565b60006060820190506120686000830186611ccd565b6120756020830185611ccd565b6120826040830184611b98565b949350505050565b6000815190506120998161197f565b92915050565b6120a881611c97565b81146120b357600080fd5b50565b6000815190506120c58161209f565b92915050565b6000806000606084860312156120e4576120e3611943565b5b60006120f28682870161208a565b935050602061210386828701611fa5565b9250506040612114868287016120b6565b9150509250925092565b600080600080600060a0868803121561213a57612139611943565b5b600061214888828901611fa5565b955050602061215988828901611fa5565b945050604061216a88828901611fa5565b935050606061217b88828901611fa5565b925050608061218c888289016120b6565b9150509295509295909350565b7f556e616374697661746564000000000000000000000000000000000000000000600082015250565b60006121cf600b83611ded565b91506121da82612199565b602082019050919050565b600060208201905081810360008301526121fe816121c2565b9050919050565b600060408201905061221a6000830185611b98565b6122276020830184611ccd565b9392505050565b60006020828403121561224457612243611943565b5b6000612252848285016120b6565b91505092915050565b7f416c726561647920616374697661746564000000000000000000000000000000600082015250565b6000612291601183611ded565b915061229c8261225b565b602082019050919050565b600060208201905081810360008301526122c081612284565b9050919050565b7f496e76616c6964206f776e657200000000000000000000000000000000000000600082015250565b60006122fd600d83611ded565b9150612308826122c7565b602082019050919050565b6000602082019050818103600083015261232c816122f0565b9050919050565b7f496e76616c6964207573657273436f6e74726163740000000000000000000000600082015250565b6000612369601583611ded565b915061237482612333565b602082019050919050565b600060208201905081810360008301526123988161235c565b9050919050565b7f496e76616c69642074697070696e67436f6e7472616374000000000000000000600082015250565b60006123d5601783611ded565b91506123e08261239f565b602082019050919050565b60006020820190508181036000830152612404816123c8565b9050919050565b7f496e76616c6964207072656d69756d4368616e6e656c436f6e74726163740000600082015250565b6000612441601e83611ded565b915061244c8261240b565b602082019050919050565b6000602082019050818103600083015261247081612434565b9050919050565b6000819050919050565b600067ffffffffffffffff82169050919050565b60006124b06124ab6124a684612477565b611b14565b612481565b9050919050565b6124c081612495565b82525050565b60006020820190506124db60008301846124b7565b9291505056fea26469706673582212203b2480a5da09db066915ec017a07703cf06de5fc5d8e3623207e686323a4961064736f6c63430008140033",
  "linkReferences": {},
  "deployedLinkReferences": {}
}